{
  "contractName": "Coinja",
  "abi": [
    {
      "inputs": [],
      "stateMutability": "nonpayable",
      "type": "constructor"
    },
    {
      "anonymous": false,
      "inputs": [
        {
          "indexed": true,
          "internalType": "address",
          "name": "owner",
          "type": "address"
        },
        {
          "indexed": true,
          "internalType": "address",
          "name": "approved",
          "type": "address"
        },
        {
          "indexed": true,
          "internalType": "uint256",
          "name": "tokenId",
          "type": "uint256"
        }
      ],
      "name": "Approval",
      "type": "event"
    },
    {
      "anonymous": false,
      "inputs": [
        {
          "indexed": true,
          "internalType": "address",
          "name": "owner",
          "type": "address"
        },
        {
          "indexed": true,
          "internalType": "address",
          "name": "operator",
          "type": "address"
        },
        {
          "indexed": false,
          "internalType": "bool",
          "name": "approved",
          "type": "bool"
        }
      ],
      "name": "ApprovalForAll",
      "type": "event"
    },
    {
      "anonymous": false,
      "inputs": [
        {
          "indexed": true,
          "internalType": "address",
          "name": "from",
          "type": "address"
        },
        {
          "indexed": true,
          "internalType": "address",
          "name": "to",
          "type": "address"
        },
        {
          "indexed": true,
          "internalType": "uint256",
          "name": "tokenId",
          "type": "uint256"
        }
      ],
      "name": "Transfer",
      "type": "event"
    },
    {
      "inputs": [],
      "name": "_tokenId",
      "outputs": [
        {
          "internalType": "uint256",
          "name": "",
          "type": "uint256"
        }
      ],
      "stateMutability": "view",
      "type": "function",
      "constant": true
    },
    {
      "inputs": [
        {
          "internalType": "address",
          "name": "to",
          "type": "address"
        },
        {
          "internalType": "uint256",
          "name": "tokenId",
          "type": "uint256"
        }
      ],
      "name": "approve",
      "outputs": [],
      "stateMutability": "nonpayable",
      "type": "function"
    },
    {
      "inputs": [
        {
          "internalType": "address",
          "name": "owner",
          "type": "address"
        }
      ],
      "name": "balanceOf",
      "outputs": [
        {
          "internalType": "uint256",
          "name": "",
          "type": "uint256"
        }
      ],
      "stateMutability": "view",
      "type": "function",
      "constant": true
    },
    {
      "inputs": [
        {
          "internalType": "uint256",
          "name": "tokenId",
          "type": "uint256"
        }
      ],
      "name": "getApproved",
      "outputs": [
        {
          "internalType": "address",
          "name": "",
          "type": "address"
        }
      ],
      "stateMutability": "view",
      "type": "function",
      "constant": true
    },
    {
      "inputs": [
        {
          "internalType": "address",
          "name": "owner",
          "type": "address"
        },
        {
          "internalType": "address",
          "name": "operator",
          "type": "address"
        }
      ],
      "name": "isApprovedForAll",
      "outputs": [
        {
          "internalType": "bool",
          "name": "",
          "type": "bool"
        }
      ],
      "stateMutability": "view",
      "type": "function",
      "constant": true
    },
    {
      "inputs": [],
      "name": "name",
      "outputs": [
        {
          "internalType": "string",
          "name": "",
          "type": "string"
        }
      ],
      "stateMutability": "view",
      "type": "function",
      "constant": true
    },
    {
      "inputs": [
        {
          "internalType": "uint256",
          "name": "tokenId",
          "type": "uint256"
        }
      ],
      "name": "ownerOf",
      "outputs": [
        {
          "internalType": "address",
          "name": "",
          "type": "address"
        }
      ],
      "stateMutability": "view",
      "type": "function",
      "constant": true
    },
    {
      "inputs": [
        {
          "internalType": "address",
          "name": "from",
          "type": "address"
        },
        {
          "internalType": "address",
          "name": "to",
          "type": "address"
        },
        {
          "internalType": "uint256",
          "name": "tokenId",
          "type": "uint256"
        }
      ],
      "name": "safeTransferFrom",
      "outputs": [],
      "stateMutability": "nonpayable",
      "type": "function"
    },
    {
      "inputs": [
        {
          "internalType": "address",
          "name": "from",
          "type": "address"
        },
        {
          "internalType": "address",
          "name": "to",
          "type": "address"
        },
        {
          "internalType": "uint256",
          "name": "tokenId",
          "type": "uint256"
        },
        {
          "internalType": "bytes",
          "name": "_data",
          "type": "bytes"
        }
      ],
      "name": "safeTransferFrom",
      "outputs": [],
      "stateMutability": "nonpayable",
      "type": "function"
    },
    {
      "inputs": [
        {
          "internalType": "address",
          "name": "operator",
          "type": "address"
        },
        {
          "internalType": "bool",
          "name": "approved",
          "type": "bool"
        }
      ],
      "name": "setApprovalForAll",
      "outputs": [],
      "stateMutability": "nonpayable",
      "type": "function"
    },
    {
      "inputs": [
        {
          "internalType": "bytes4",
          "name": "interfaceId",
          "type": "bytes4"
        }
      ],
      "name": "supportsInterface",
      "outputs": [
        {
          "internalType": "bool",
          "name": "",
          "type": "bool"
        }
      ],
      "stateMutability": "view",
      "type": "function",
      "constant": true
    },
    {
      "inputs": [],
      "name": "symbol",
      "outputs": [
        {
          "internalType": "string",
          "name": "",
          "type": "string"
        }
      ],
      "stateMutability": "view",
      "type": "function",
      "constant": true
    },
    {
      "inputs": [
        {
          "internalType": "uint256",
          "name": "tokenId",
          "type": "uint256"
        }
      ],
      "name": "tokenURI",
      "outputs": [
        {
          "internalType": "string",
          "name": "",
          "type": "string"
        }
      ],
      "stateMutability": "view",
      "type": "function",
      "constant": true
    },
    {
      "inputs": [
        {
          "internalType": "address",
          "name": "from",
          "type": "address"
        },
        {
          "internalType": "address",
          "name": "to",
          "type": "address"
        },
        {
          "internalType": "uint256",
          "name": "tokenId",
          "type": "uint256"
        }
      ],
      "name": "transferFrom",
      "outputs": [],
      "stateMutability": "nonpayable",
      "type": "function"
    },
    {
      "inputs": [],
      "name": "mint",
      "outputs": [
        {
          "internalType": "uint256",
          "name": "",
          "type": "uint256"
        }
      ],
      "stateMutability": "nonpayable",
      "type": "function"
    },
    {
      "inputs": [
        {
          "internalType": "uint256",
          "name": "tokenId",
          "type": "uint256"
        }
      ],
      "name": "burn",
      "outputs": [],
      "stateMutability": "nonpayable",
      "type": "function"
    },
    {
      "inputs": [],
      "name": "totalSupply",
      "outputs": [
        {
          "internalType": "uint256",
          "name": "",
          "type": "uint256"
        }
      ],
      "stateMutability": "view",
      "type": "function",
      "constant": true
    }
  ],
  "bytecode": "0x60806040523480156200001157600080fd5b506040518060400160405280600681526020017f436f696e6a6100000000000000000000000000000000000000000000000000008152506040518060400160405280600481526020017f5354415200000000000000000000000000000000000000000000000000000000815250816000908051906020019062000096929190620000b8565b508060019080519060200190620000af929190620000b8565b505050620001cd565b828054620000c69062000168565b90600052602060002090601f016020900481019282620000ea576000855562000136565b82601f106200010557805160ff191683800117855562000136565b8280016001018555821562000136579182015b828111156200013557825182559160200191906001019062000118565b5b50905062000145919062000149565b5090565b5b80821115620001645760008160009055506001016200014a565b5090565b600060028204905060018216806200018157607f821691505b602082108114156200019857620001976200019e565b5b50919050565b7f4e487b7100000000000000000000000000000000000000000000000000000000600052602260045260246000fd5b6127ea80620001dd6000396000f3fe608060405234801561001057600080fd5b506004361061010b5760003560e01c806342842e0e116100a257806395d89b411161007157806395d89b41146102b8578063a22cb465146102d6578063b88d4fde146102f2578063c87b56dd1461030e578063e985e9c51461033e5761010b565b806342842e0e1461022057806342966c681461023c5780636352211e1461025857806370a08231146102885761010b565b80631249c58b116100de5780631249c58b146101aa57806318160ddd146101c857806323b872dd146101e657806324822514146102025761010b565b806301ffc9a71461011057806306fdde0314610140578063081812fc1461015e578063095ea7b31461018e575b600080fd5b61012a60048036038101906101259190611aba565b61036e565b60405161013791906121b2565b60405180910390f35b610148610450565b60405161015591906121cd565b60405180910390f35b61017860048036038101906101739190611b0c565b6104e2565b604051610185919061214b565b60405180910390f35b6101a860048036038101906101a39190611a7e565b610567565b005b6101b261067f565b6040516101bf91906123af565b60405180910390f35b6101d06106e4565b6040516101dd91906123af565b60405180910390f35b61020060048036038101906101fb9190611978565b6106f1565b005b61020a610751565b60405161021791906123af565b60405180910390f35b61023a60048036038101906102359190611978565b610757565b005b61025660048036038101906102519190611b0c565b610777565b005b610272600480360381019061026d9190611b0c565b610783565b60405161027f919061214b565b60405180910390f35b6102a2600480360381019061029d9190611913565b610835565b6040516102af91906123af565b60405180910390f35b6102c06108ed565b6040516102cd91906121cd565b60405180910390f35b6102f060048036038101906102eb9190611a42565b61097f565b005b61030c600480360381019061030791906119c7565b610b00565b005b61032860048036038101906103239190611b0c565b610b62565b60405161033591906121cd565b60405180910390f35b6103586004803603810190610353919061193c565b610c09565b60405161036591906121b2565b60405180910390f35b60007f80ac58cd000000000000000000000000000000000000000000000000000000007bffffffffffffffffffffffffffffffffffffffffffffffffffffffff1916827bffffffffffffffffffffffffffffffffffffffffffffffffffffffff1916148061043957507f5b5e139f000000000000000000000000000000000000000000000000000000007bffffffffffffffffffffffffffffffffffffffffffffffffffffffff1916827bffffffffffffffffffffffffffffffffffffffffffffffffffffffff1916145b80610449575061044882610c9d565b5b9050919050565b60606000805461045f906125df565b80601f016020809104026020016040519081016040528092919081815260200182805461048b906125df565b80156104d85780601f106104ad576101008083540402835291602001916104d8565b820191906000526020600020905b8154815290600101906020018083116104bb57829003601f168201915b5050505050905090565b60006104ed82610d07565b61052c576040517f08c379a00000000000000000000000000000000000000000000000000000000081526004016105239061230f565b60405180910390fd5b6004600083815260200190815260200160002060009054906101000a900473ffffffffffffffffffffffffffffffffffffffff169050919050565b600061057282610783565b90508073ffffffffffffffffffffffffffffffffffffffff168373ffffffffffffffffffffffffffffffffffffffff1614156105e3576040517f08c379a00000000000000000000000000000000000000000000000000000000081526004016105da9061236f565b60405180910390fd5b8073ffffffffffffffffffffffffffffffffffffffff16610602610d73565b73ffffffffffffffffffffffffffffffffffffffff16148061063157506106308161062b610d73565b610c09565b5b610670576040517f08c379a00000000000000000000000000000000000000000000000000000000081526004016106679061228f565b60405180910390fd5b61067a8383610d7b565b505050565b600061068d33600654610e34565b600760065490806001815401808255809150506001900390600052602060002001600090919091909150556106c3600654610b62565b50600660008154809291906106d790612611565b9190505550600654905090565b6000600780549050905090565b6107026106fc610d73565b82611002565b610741576040517f08c379a00000000000000000000000000000000000000000000000000000000081526004016107389061238f565b60405180910390fd5b61074c8383836110e0565b505050565b60065481565b61077283838360405180602001604052806000815250610b00565b505050565b6107808161133c565b50565b6000806002600084815260200190815260200160002060009054906101000a900473ffffffffffffffffffffffffffffffffffffffff169050600073ffffffffffffffffffffffffffffffffffffffff168173ffffffffffffffffffffffffffffffffffffffff16141561082c576040517f08c379a0000000000000000000000000000000000000000000000000000000008152600401610823906122cf565b60405180910390fd5b80915050919050565b60008073ffffffffffffffffffffffffffffffffffffffff168273ffffffffffffffffffffffffffffffffffffffff1614156108a6576040517f08c379a000000000000000000000000000000000000000000000000000000000815260040161089d906122af565b60405180910390fd5b600360008373ffffffffffffffffffffffffffffffffffffffff1673ffffffffffffffffffffffffffffffffffffffff168152602001908152602001600020549050919050565b6060600180546108fc906125df565b80601f0160208091040260200160405190810160405280929190818152602001828054610928906125df565b80156109755780601f1061094a57610100808354040283529160200191610975565b820191906000526020600020905b81548152906001019060200180831161095857829003601f168201915b5050505050905090565b610987610d73565b73ffffffffffffffffffffffffffffffffffffffff168273ffffffffffffffffffffffffffffffffffffffff1614156109f5576040517f08c379a00000000000000000000000000000000000000000000000000000000081526004016109ec9061224f565b60405180910390fd5b8060056000610a02610d73565b73ffffffffffffffffffffffffffffffffffffffff1673ffffffffffffffffffffffffffffffffffffffff16815260200190815260200160002060008473ffffffffffffffffffffffffffffffffffffffff1673ffffffffffffffffffffffffffffffffffffffff16815260200190815260200160002060006101000a81548160ff0219169083151502179055508173ffffffffffffffffffffffffffffffffffffffff16610aaf610d73565b73ffffffffffffffffffffffffffffffffffffffff167f17307eab39ab6107e8899845ad3d59bd9653f200f220920489ca2b5937696c3183604051610af491906121b2565b60405180910390a35050565b610b11610b0b610d73565b83611002565b610b50576040517f08c379a0000000000000000000000000000000000000000000000000000000008152600401610b479061238f565b60405180910390fd5b610b5c8484848461144d565b50505050565b6060610b6d82610d07565b610bac576040517f08c379a0000000000000000000000000000000000000000000000000000000008152600401610ba39061234f565b60405180910390fd5b6000610bb66114a9565b90506000815111610bd65760405180602001604052806000815250610c01565b80610be0846114e6565b604051602001610bf1929190612127565b6040516020818303038152906040525b915050919050565b6000600560008473ffffffffffffffffffffffffffffffffffffffff1673ffffffffffffffffffffffffffffffffffffffff16815260200190815260200160002060008373ffffffffffffffffffffffffffffffffffffffff1673ffffffffffffffffffffffffffffffffffffffff16815260200190815260200160002060009054906101000a900460ff16905092915050565b60007f01ffc9a7000000000000000000000000000000000000000000000000000000007bffffffffffffffffffffffffffffffffffffffffffffffffffffffff1916827bffffffffffffffffffffffffffffffffffffffffffffffffffffffff1916149050919050565b60008073ffffffffffffffffffffffffffffffffffffffff166002600084815260200190815260200160002060009054906101000a900473ffffffffffffffffffffffffffffffffffffffff1673ffffffffffffffffffffffffffffffffffffffff1614159050919050565b600033905090565b816004600083815260200190815260200160002060006101000a81548173ffffffffffffffffffffffffffffffffffffffff021916908373ffffffffffffffffffffffffffffffffffffffff160217905550808273ffffffffffffffffffffffffffffffffffffffff16610dee83610783565b73ffffffffffffffffffffffffffffffffffffffff167f8c5be1e5ebec7d5bd14f71427d1e84f3dd0314c0f7b2291e5b200ac8c7c3b92560405160405180910390a45050565b600073ffffffffffffffffffffffffffffffffffffffff168273ffffffffffffffffffffffffffffffffffffffff161415610ea4576040517f08c379a0000000000000000000000000000000000000000000000000000000008152600401610e9b906122ef565b60405180910390fd5b610ead81610d07565b15610eed576040517f08c379a0000000000000000000000000000000000000000000000000000000008152600401610ee49061220f565b60405180910390fd5b610ef960008383611693565b6001600360008473ffffffffffffffffffffffffffffffffffffffff1673ffffffffffffffffffffffffffffffffffffffff1681526020019081526020016000206000828254610f49919061246e565b92505081905550816002600083815260200190815260200160002060006101000a81548173ffffffffffffffffffffffffffffffffffffffff021916908373ffffffffffffffffffffffffffffffffffffffff160217905550808273ffffffffffffffffffffffffffffffffffffffff16600073ffffffffffffffffffffffffffffffffffffffff167fddf252ad1be2c89b69c2b068fc378daa952ba7f163c4a11628f55a4df523b3ef60405160405180910390a45050565b600061100d82610d07565b61104c576040517f08c379a00000000000000000000000000000000000000000000000000000000081526004016110439061226f565b60405180910390fd5b600061105783610783565b90508073ffffffffffffffffffffffffffffffffffffffff168473ffffffffffffffffffffffffffffffffffffffff1614806110c657508373ffffffffffffffffffffffffffffffffffffffff166110ae846104e2565b73ffffffffffffffffffffffffffffffffffffffff16145b806110d757506110d68185610c09565b5b91505092915050565b8273ffffffffffffffffffffffffffffffffffffffff1661110082610783565b73ffffffffffffffffffffffffffffffffffffffff1614611156576040517f08c379a000000000000000000000000000000000000000000000000000000000815260040161114d9061232f565b60405180910390fd5b600073ffffffffffffffffffffffffffffffffffffffff168273ffffffffffffffffffffffffffffffffffffffff1614156111c6576040517f08c379a00000000000000000000000000000000000000000000000000000000081526004016111bd9061222f565b60405180910390fd5b6111d1838383611693565b6111dc600082610d7b565b6001600360008573ffffffffffffffffffffffffffffffffffffffff1673ffffffffffffffffffffffffffffffffffffffff168152602001908152602001600020600082825461122c91906124f5565b925050819055506001600360008473ffffffffffffffffffffffffffffffffffffffff1673ffffffffffffffffffffffffffffffffffffffff1681526020019081526020016000206000828254611283919061246e565b92505081905550816002600083815260200190815260200160002060006101000a81548173ffffffffffffffffffffffffffffffffffffffff021916908373ffffffffffffffffffffffffffffffffffffffff160217905550808273ffffffffffffffffffffffffffffffffffffffff168473ffffffffffffffffffffffffffffffffffffffff167fddf252ad1be2c89b69c2b068fc378daa952ba7f163c4a11628f55a4df523b3ef60405160405180910390a4505050565b600061134782610783565b905061135581600084611693565b611360600083610d7b565b6001600360008373ffffffffffffffffffffffffffffffffffffffff1673ffffffffffffffffffffffffffffffffffffffff16815260200190815260200160002060008282546113b091906124f5565b925050819055506002600083815260200190815260200160002060006101000a81549073ffffffffffffffffffffffffffffffffffffffff021916905581600073ffffffffffffffffffffffffffffffffffffffff168273ffffffffffffffffffffffffffffffffffffffff167fddf252ad1be2c89b69c2b068fc378daa952ba7f163c4a11628f55a4df523b3ef60405160405180910390a45050565b6114588484846110e0565b61146484848484611698565b6114a3576040517f08c379a000000000000000000000000000000000000000000000000000000000815260040161149a906121ef565b60405180910390fd5b50505050565b60606040518060400160405280601681526020017f687474703a2f2f6c6f63616c686f73743a333030302f00000000000000000000815250905090565b6060600082141561152e576040518060400160405280600181526020017f3000000000000000000000000000000000000000000000000000000000000000815250905061168e565b600082905060005b6000821461156057808061154990612611565b915050600a8261155991906124c4565b9150611536565b60008167ffffffffffffffff8111156115a2577f4e487b7100000000000000000000000000000000000000000000000000000000600052604160045260246000fd5b6040519080825280601f01601f1916602001820160405280156115d45781602001600182028036833780820191505090505b5090505b60008514611687576001826115ed91906124f5565b9150600a856115fc919061265a565b6030611608919061246e565b60f81b818381518110611644577f4e487b7100000000000000000000000000000000000000000000000000000000600052603260045260246000fd5b60200101907effffffffffffffffffffffffffffffffffffffffffffffffffffffffffffff1916908160001a905350600a8561168091906124c4565b94506115d8565b8093505050505b919050565b505050565b60006116b98473ffffffffffffffffffffffffffffffffffffffff1661182f565b15611822578373ffffffffffffffffffffffffffffffffffffffff1663150b7a026116e2610d73565b8786866040518563ffffffff1660e01b81526004016117049493929190612166565b602060405180830381600087803b15801561171e57600080fd5b505af192505050801561174f57506040513d601f19601f8201168201806040525081019061174c9190611ae3565b60015b6117d2573d806000811461177f576040519150601f19603f3d011682016040523d82523d6000602084013e611784565b606091505b506000815114156117ca576040517f08c379a00000000000000000000000000000000000000000000000000000000081526004016117c1906121ef565b60405180910390fd5b805181602001fd5b63150b7a0260e01b7bffffffffffffffffffffffffffffffffffffffffffffffffffffffff1916817bffffffffffffffffffffffffffffffffffffffffffffffffffffffff191614915050611827565b600190505b949350505050565b600080823b905060008111915050919050565b6000611855611850846123fb565b6123ca565b90508281526020810184848401111561186d57600080fd5b61187884828561259d565b509392505050565b60008135905061188f81612758565b92915050565b6000813590506118a48161276f565b92915050565b6000813590506118b981612786565b92915050565b6000815190506118ce81612786565b92915050565b600082601f8301126118e557600080fd5b81356118f5848260208601611842565b91505092915050565b60008135905061190d8161279d565b92915050565b60006020828403121561192557600080fd5b600061193384828501611880565b91505092915050565b6000806040838503121561194f57600080fd5b600061195d85828601611880565b925050602061196e85828601611880565b9150509250929050565b60008060006060848603121561198d57600080fd5b600061199b86828701611880565b93505060206119ac86828701611880565b92505060406119bd868287016118fe565b9150509250925092565b600080600080608085870312156119dd57600080fd5b60006119eb87828801611880565b94505060206119fc87828801611880565b9350506040611a0d878288016118fe565b925050606085013567ffffffffffffffff811115611a2a57600080fd5b611a36878288016118d4565b91505092959194509250565b60008060408385031215611a5557600080fd5b6000611a6385828601611880565b9250506020611a7485828601611895565b9150509250929050565b60008060408385031215611a9157600080fd5b6000611a9f85828601611880565b9250506020611ab0858286016118fe565b9150509250929050565b600060208284031215611acc57600080fd5b6000611ada848285016118aa565b91505092915050565b600060208284031215611af557600080fd5b6000611b03848285016118bf565b91505092915050565b600060208284031215611b1e57600080fd5b6000611b2c848285016118fe565b91505092915050565b611b3e81612529565b82525050565b611b4d8161253b565b82525050565b6000611b5e8261242b565b611b688185612441565b9350611b788185602086016125ac565b611b8181612747565b840191505092915050565b6000611b9782612436565b611ba18185612452565b9350611bb18185602086016125ac565b611bba81612747565b840191505092915050565b6000611bd082612436565b611bda8185612463565b9350611bea8185602086016125ac565b80840191505092915050565b6000611c03603283612452565b91507f4552433732313a207472616e7366657220746f206e6f6e20455243373231526560008301527f63656976657220696d706c656d656e74657200000000000000000000000000006020830152604082019050919050565b6000611c69601c83612452565b91507f4552433732313a20746f6b656e20616c7265616479206d696e746564000000006000830152602082019050919050565b6000611ca9602483612452565b91507f4552433732313a207472616e7366657220746f20746865207a65726f2061646460008301527f72657373000000000000000000000000000000000000000000000000000000006020830152604082019050919050565b6000611d0f601983612452565b91507f4552433732313a20617070726f766520746f2063616c6c6572000000000000006000830152602082019050919050565b6000611d4f602c83612452565b91507f4552433732313a206f70657261746f7220717565727920666f72206e6f6e657860008301527f697374656e7420746f6b656e00000000000000000000000000000000000000006020830152604082019050919050565b6000611db5603883612452565b91507f4552433732313a20617070726f76652063616c6c6572206973206e6f74206f7760008301527f6e6572206e6f7220617070726f76656420666f7220616c6c00000000000000006020830152604082019050919050565b6000611e1b602a83612452565b91507f4552433732313a2062616c616e636520717565727920666f7220746865207a6560008301527f726f2061646472657373000000000000000000000000000000000000000000006020830152604082019050919050565b6000611e81602983612452565b91507f4552433732313a206f776e657220717565727920666f72206e6f6e657869737460008301527f656e7420746f6b656e00000000000000000000000000000000000000000000006020830152604082019050919050565b6000611ee7602083612452565b91507f4552433732313a206d696e7420746f20746865207a65726f20616464726573736000830152602082019050919050565b6000611f27602c83612452565b91507f4552433732313a20617070726f76656420717565727920666f72206e6f6e657860008301527f697374656e7420746f6b656e00000000000000000000000000000000000000006020830152604082019050919050565b6000611f8d602983612452565b91507f4552433732313a207472616e73666572206f6620746f6b656e2074686174206960008301527f73206e6f74206f776e00000000000000000000000000000000000000000000006020830152604082019050919050565b6000611ff3602f83612452565b91507f4552433732314d657461646174613a2055524920717565727920666f72206e6f60008301527f6e6578697374656e7420746f6b656e00000000000000000000000000000000006020830152604082019050919050565b6000612059602183612452565b91507f4552433732313a20617070726f76616c20746f2063757272656e74206f776e6560008301527f72000000000000000000000000000000000000000000000000000000000000006020830152604082019050919050565b60006120bf603183612452565b91507f4552433732313a207472616e736665722063616c6c6572206973206e6f74206f60008301527f776e6572206e6f7220617070726f7665640000000000000000000000000000006020830152604082019050919050565b61212181612593565b82525050565b60006121338285611bc5565b915061213f8284611bc5565b91508190509392505050565b60006020820190506121606000830184611b35565b92915050565b600060808201905061217b6000830187611b35565b6121886020830186611b35565b6121956040830185612118565b81810360608301526121a78184611b53565b905095945050505050565b60006020820190506121c76000830184611b44565b92915050565b600060208201905081810360008301526121e78184611b8c565b905092915050565b6000602082019050818103600083015261220881611bf6565b9050919050565b6000602082019050818103600083015261222881611c5c565b9050919050565b6000602082019050818103600083015261224881611c9c565b9050919050565b6000602082019050818103600083015261226881611d02565b9050919050565b6000602082019050818103600083015261228881611d42565b9050919050565b600060208201905081810360008301526122a881611da8565b9050919050565b600060208201905081810360008301526122c881611e0e565b9050919050565b600060208201905081810360008301526122e881611e74565b9050919050565b6000602082019050818103600083015261230881611eda565b9050919050565b6000602082019050818103600083015261232881611f1a565b9050919050565b6000602082019050818103600083015261234881611f80565b9050919050565b6000602082019050818103600083015261236881611fe6565b9050919050565b600060208201905081810360008301526123888161204c565b9050919050565b600060208201905081810360008301526123a8816120b2565b9050919050565b60006020820190506123c46000830184612118565b92915050565b6000604051905081810181811067ffffffffffffffff821117156123f1576123f0612718565b5b8060405250919050565b600067ffffffffffffffff82111561241657612415612718565b5b601f19601f8301169050602081019050919050565b600081519050919050565b600081519050919050565b600082825260208201905092915050565b600082825260208201905092915050565b600081905092915050565b600061247982612593565b915061248483612593565b9250827fffffffffffffffffffffffffffffffffffffffffffffffffffffffffffffffff038211156124b9576124b861268b565b5b828201905092915050565b60006124cf82612593565b91506124da83612593565b9250826124ea576124e96126ba565b5b828204905092915050565b600061250082612593565b915061250b83612593565b92508282101561251e5761251d61268b565b5b828203905092915050565b600061253482612573565b9050919050565b60008115159050919050565b60007fffffffff0000000000000000000000000000000000000000000000000000000082169050919050565b600073ffffffffffffffffffffffffffffffffffffffff82169050919050565b6000819050919050565b82818337600083830152505050565b60005b838110156125ca5780820151818401526020810190506125af565b838111156125d9576000848401525b50505050565b600060028204905060018216806125f757607f821691505b6020821081141561260b5761260a6126e9565b5b50919050565b600061261c82612593565b91507fffffffffffffffffffffffffffffffffffffffffffffffffffffffffffffffff82141561264f5761264e61268b565b5b600182019050919050565b600061266582612593565b915061267083612593565b9250826126805761267f6126ba565b5b828206905092915050565b7f4e487b7100000000000000000000000000000000000000000000000000000000600052601160045260246000fd5b7f4e487b7100000000000000000000000000000000000000000000000000000000600052601260045260246000fd5b7f4e487b7100000000000000000000000000000000000000000000000000000000600052602260045260246000fd5b7f4e487b7100000000000000000000000000000000000000000000000000000000600052604160045260246000fd5b6000601f19601f8301169050919050565b61276181612529565b811461276c57600080fd5b50565b6127788161253b565b811461278357600080fd5b50565b61278f81612547565b811461279a57600080fd5b50565b6127a681612593565b81146127b157600080fd5b5056fea26469706673582212200e972e9875fb2c45cfc7d380d134c2c14f8df5a0f55b51c660b7b26af873bd0864736f6c63430008000033",
  "immutableReferences": {},
  "source": "// SPDX-License-Identifier: MIT\r\npragma solidity ^0.8.0;\r\n\r\nimport \"@openzeppelin/contracts/token/ERC721/ERC721.sol\";\r\nimport \"@openzeppelin/contracts/token/ERC721/extensions/IERC721Metadata.sol\";\r\n\r\ncontract Coinja is IERC721Metadata, ERC721  {\r\n  uint256 public _tokenId;\r\n  uint256[] private _allTokens;\r\n\r\n  constructor() ERC721(\"Coinja\", \"STAR\") {\r\n  }\r\n\r\n  function mint() public returns (uint256){ // Have to restrict access \r\n    _mint(msg.sender, _tokenId);\r\n    _allTokens.push(_tokenId);\r\n    tokenURI(_tokenId);\r\n    _tokenId++;\r\n    return _tokenId;\r\n  }\r\n\r\n  function burn(uint256 tokenId) public{ // Have to restrict access \r\n    _burn(tokenId);\r\n  }\r\n\r\n  function _baseURI() internal pure override returns (string memory) {\r\n        return \"http://localhost:3000/\";\r\n  }\r\n\r\n  \r\n  function totalSupply() public view virtual returns (uint256) {\r\n        return _allTokens.length;\r\n  }\r\n\r\n}",
  "sourcePath": "C:\\Users\\schog\\nft-ninja\\src\\contracts\\Coinja.sol",
  "compiler": {
    "name": "solc",
    "version": "0.8.0+commit.c7dfd78e.Emscripten.clang"
  },
  "schemaVersion": "3.4.2",
  "updatedAt": "2021-08-05T23:22:15.897Z",
  "networkType": "ethereum",
  "devdoc": {
    "kind": "dev",
    "methods": {
      "approve(address,uint256)": {
        "details": "See {IERC721-approve}."
      },
      "balanceOf(address)": {
        "details": "See {IERC721-balanceOf}."
      },
      "getApproved(uint256)": {
        "details": "See {IERC721-getApproved}."
      },
      "isApprovedForAll(address,address)": {
        "details": "See {IERC721-isApprovedForAll}."
      },
      "name()": {
        "details": "See {IERC721Metadata-name}."
      },
      "ownerOf(uint256)": {
        "details": "See {IERC721-ownerOf}."
      },
      "safeTransferFrom(address,address,uint256)": {
        "details": "See {IERC721-safeTransferFrom}."
      },
      "safeTransferFrom(address,address,uint256,bytes)": {
        "details": "See {IERC721-safeTransferFrom}."
      },
      "setApprovalForAll(address,bool)": {
        "details": "See {IERC721-setApprovalForAll}."
      },
      "supportsInterface(bytes4)": {
        "details": "See {IERC165-supportsInterface}."
      },
      "symbol()": {
        "details": "See {IERC721Metadata-symbol}."
      },
      "tokenURI(uint256)": {
        "details": "See {IERC721Metadata-tokenURI}."
      },
      "transferFrom(address,address,uint256)": {
        "details": "See {IERC721-transferFrom}."
      }
    },
    "version": 1
  },
  "userdoc": {
    "kind": "user",
    "methods": {},
    "version": 1
  }
}