{
  "contractName": "Coinja",
  "abi": [
    {
      "inputs": [],
      "stateMutability": "nonpayable",
      "type": "constructor"
    },
    {
      "anonymous": false,
      "inputs": [
        {
          "indexed": true,
          "internalType": "address",
          "name": "owner",
          "type": "address"
        },
        {
          "indexed": true,
          "internalType": "address",
          "name": "approved",
          "type": "address"
        },
        {
          "indexed": true,
          "internalType": "uint256",
          "name": "tokenId",
          "type": "uint256"
        }
      ],
      "name": "Approval",
      "type": "event"
    },
    {
      "anonymous": false,
      "inputs": [
        {
          "indexed": true,
          "internalType": "address",
          "name": "owner",
          "type": "address"
        },
        {
          "indexed": true,
          "internalType": "address",
          "name": "operator",
          "type": "address"
        },
        {
          "indexed": false,
          "internalType": "bool",
          "name": "approved",
          "type": "bool"
        }
      ],
      "name": "ApprovalForAll",
      "type": "event"
    },
    {
      "anonymous": false,
      "inputs": [
        {
          "indexed": true,
          "internalType": "address",
          "name": "from",
          "type": "address"
        },
        {
          "indexed": true,
          "internalType": "address",
          "name": "to",
          "type": "address"
        },
        {
          "indexed": true,
          "internalType": "uint256",
          "name": "tokenId",
          "type": "uint256"
        }
      ],
      "name": "Transfer",
      "type": "event"
    },
    {
      "inputs": [],
      "name": "_tokenId",
      "outputs": [
        {
          "internalType": "uint256",
          "name": "",
          "type": "uint256"
        }
      ],
      "stateMutability": "view",
      "type": "function",
      "constant": true
    },
    {
      "inputs": [
        {
          "internalType": "address",
          "name": "to",
          "type": "address"
        },
        {
          "internalType": "uint256",
          "name": "tokenId",
          "type": "uint256"
        }
      ],
      "name": "approve",
      "outputs": [],
      "stateMutability": "nonpayable",
      "type": "function"
    },
    {
      "inputs": [
        {
          "internalType": "address",
          "name": "owner",
          "type": "address"
        }
      ],
      "name": "balanceOf",
      "outputs": [
        {
          "internalType": "uint256",
          "name": "",
          "type": "uint256"
        }
      ],
      "stateMutability": "view",
      "type": "function",
      "constant": true
    },
    {
      "inputs": [
        {
          "internalType": "uint256",
          "name": "tokenId",
          "type": "uint256"
        }
      ],
      "name": "getApproved",
      "outputs": [
        {
          "internalType": "address",
          "name": "",
          "type": "address"
        }
      ],
      "stateMutability": "view",
      "type": "function",
      "constant": true
    },
    {
      "inputs": [
        {
          "internalType": "address",
          "name": "owner",
          "type": "address"
        },
        {
          "internalType": "address",
          "name": "operator",
          "type": "address"
        }
      ],
      "name": "isApprovedForAll",
      "outputs": [
        {
          "internalType": "bool",
          "name": "",
          "type": "bool"
        }
      ],
      "stateMutability": "view",
      "type": "function",
      "constant": true
    },
    {
      "inputs": [],
      "name": "name",
      "outputs": [
        {
          "internalType": "string",
          "name": "",
          "type": "string"
        }
      ],
      "stateMutability": "view",
      "type": "function",
      "constant": true
    },
    {
      "inputs": [
        {
          "internalType": "uint256",
          "name": "tokenId",
          "type": "uint256"
        }
      ],
      "name": "ownerOf",
      "outputs": [
        {
          "internalType": "address",
          "name": "",
          "type": "address"
        }
      ],
      "stateMutability": "view",
      "type": "function",
      "constant": true
    },
    {
      "inputs": [
        {
          "internalType": "address",
          "name": "from",
          "type": "address"
        },
        {
          "internalType": "address",
          "name": "to",
          "type": "address"
        },
        {
          "internalType": "uint256",
          "name": "tokenId",
          "type": "uint256"
        }
      ],
      "name": "safeTransferFrom",
      "outputs": [],
      "stateMutability": "nonpayable",
      "type": "function"
    },
    {
      "inputs": [
        {
          "internalType": "address",
          "name": "from",
          "type": "address"
        },
        {
          "internalType": "address",
          "name": "to",
          "type": "address"
        },
        {
          "internalType": "uint256",
          "name": "tokenId",
          "type": "uint256"
        },
        {
          "internalType": "bytes",
          "name": "_data",
          "type": "bytes"
        }
      ],
      "name": "safeTransferFrom",
      "outputs": [],
      "stateMutability": "nonpayable",
      "type": "function"
    },
    {
      "inputs": [
        {
          "internalType": "address",
          "name": "operator",
          "type": "address"
        },
        {
          "internalType": "bool",
          "name": "approved",
          "type": "bool"
        }
      ],
      "name": "setApprovalForAll",
      "outputs": [],
      "stateMutability": "nonpayable",
      "type": "function"
    },
    {
      "inputs": [
        {
          "internalType": "bytes4",
          "name": "interfaceId",
          "type": "bytes4"
        }
      ],
      "name": "supportsInterface",
      "outputs": [
        {
          "internalType": "bool",
          "name": "",
          "type": "bool"
        }
      ],
      "stateMutability": "view",
      "type": "function",
      "constant": true
    },
    {
      "inputs": [],
      "name": "symbol",
      "outputs": [
        {
          "internalType": "string",
          "name": "",
          "type": "string"
        }
      ],
      "stateMutability": "view",
      "type": "function",
      "constant": true
    },
    {
      "inputs": [
        {
          "internalType": "uint256",
          "name": "tokenId",
          "type": "uint256"
        }
      ],
      "name": "tokenURI",
      "outputs": [
        {
          "internalType": "string",
          "name": "",
          "type": "string"
        }
      ],
      "stateMutability": "view",
      "type": "function",
      "constant": true
    },
    {
      "inputs": [
        {
          "internalType": "address",
          "name": "from",
          "type": "address"
        },
        {
          "internalType": "address",
          "name": "to",
          "type": "address"
        },
        {
          "internalType": "uint256",
          "name": "tokenId",
          "type": "uint256"
        }
      ],
      "name": "transferFrom",
      "outputs": [],
      "stateMutability": "nonpayable",
      "type": "function"
    },
    {
      "inputs": [],
      "name": "mint",
      "outputs": [
        {
          "internalType": "uint256",
          "name": "",
          "type": "uint256"
        }
      ],
      "stateMutability": "nonpayable",
      "type": "function"
    },
    {
      "inputs": [],
      "name": "totalSupply",
      "outputs": [
        {
          "internalType": "uint256",
          "name": "",
          "type": "uint256"
        }
      ],
      "stateMutability": "view",
      "type": "function",
      "constant": true
    }
  ],
  "bytecode": "0x60806040523480156200001157600080fd5b506040518060400160405280600681526020017f436f696e6a6100000000000000000000000000000000000000000000000000008152506040518060400160405280600481526020017f5354415200000000000000000000000000000000000000000000000000000000815250816000908051906020019062000096929190620000b8565b508060019080519060200190620000af929190620000b8565b505050620001cd565b828054620000c69062000168565b90600052602060002090601f016020900481019282620000ea576000855562000136565b82601f106200010557805160ff191683800117855562000136565b8280016001018555821562000136579182015b828111156200013557825182559160200191906001019062000118565b5b50905062000145919062000149565b5090565b5b80821115620001645760008160009055506001016200014a565b5090565b600060028204905060018216806200018157607f821691505b602082108114156200019857620001976200019e565b5b50919050565b7f4e487b7100000000000000000000000000000000000000000000000000000000600052602260045260246000fd5b6126a680620001dd6000396000f3fe608060405234801561001057600080fd5b50600436106101005760003560e01c806342842e0e11610097578063a22cb46511610066578063a22cb465146102af578063b88d4fde146102cb578063c87b56dd146102e7578063e985e9c51461031757610100565b806342842e0e146102155780636352211e1461023157806370a082311461026157806395d89b411461029157610100565b80631249c58b116100d35780631249c58b1461019f57806318160ddd146101bd57806323b872dd146101db57806324822514146101f757610100565b806301ffc9a71461010557806306fdde0314610135578063081812fc14610153578063095ea7b314610183575b600080fd5b61011f600480360381019061011a9190611976565b610347565b60405161012c919061206e565b60405180910390f35b61013d610429565b60405161014a9190612089565b60405180910390f35b61016d600480360381019061016891906119c8565b6104bb565b60405161017a9190612007565b60405180910390f35b61019d6004803603810190610198919061193a565b610540565b005b6101a7610658565b6040516101b4919061226b565b60405180910390f35b6101c56106bd565b6040516101d2919061226b565b60405180910390f35b6101f560048036038101906101f09190611834565b6106ca565b005b6101ff61072a565b60405161020c919061226b565b60405180910390f35b61022f600480360381019061022a9190611834565b610730565b005b61024b600480360381019061024691906119c8565b610750565b6040516102589190612007565b60405180910390f35b61027b600480360381019061027691906117cf565b610802565b604051610288919061226b565b60405180910390f35b6102996108ba565b6040516102a69190612089565b60405180910390f35b6102c960048036038101906102c491906118fe565b61094c565b005b6102e560048036038101906102e09190611883565b610acd565b005b61030160048036038101906102fc91906119c8565b610b2f565b60405161030e9190612089565b60405180910390f35b610331600480360381019061032c91906117f8565b610bd6565b60405161033e919061206e565b60405180910390f35b60007f80ac58cd000000000000000000000000000000000000000000000000000000007bffffffffffffffffffffffffffffffffffffffffffffffffffffffff1916827bffffffffffffffffffffffffffffffffffffffffffffffffffffffff1916148061041257507f5b5e139f000000000000000000000000000000000000000000000000000000007bffffffffffffffffffffffffffffffffffffffffffffffffffffffff1916827bffffffffffffffffffffffffffffffffffffffffffffffffffffffff1916145b80610422575061042182610c6a565b5b9050919050565b6060600080546104389061249b565b80601f01602080910402602001604051908101604052809291908181526020018280546104649061249b565b80156104b15780601f10610486576101008083540402835291602001916104b1565b820191906000526020600020905b81548152906001019060200180831161049457829003601f168201915b5050505050905090565b60006104c682610cd4565b610505576040517f08c379a00000000000000000000000000000000000000000000000000000000081526004016104fc906121cb565b60405180910390fd5b6004600083815260200190815260200160002060009054906101000a900473ffffffffffffffffffffffffffffffffffffffff169050919050565b600061054b82610750565b90508073ffffffffffffffffffffffffffffffffffffffff168373ffffffffffffffffffffffffffffffffffffffff1614156105bc576040517f08c379a00000000000000000000000000000000000000000000000000000000081526004016105b39061222b565b60405180910390fd5b8073ffffffffffffffffffffffffffffffffffffffff166105db610d40565b73ffffffffffffffffffffffffffffffffffffffff16148061060a575061060981610604610d40565b610bd6565b5b610649576040517f08c379a00000000000000000000000000000000000000000000000000000000081526004016106409061214b565b60405180910390fd5b6106538383610d48565b505050565b600061066633600654610e01565b6007600654908060018154018082558091505060019003906000526020600020016000909190919091505561069c600654610b2f565b50600660008154809291906106b0906124cd565b9190505550600654905090565b6000600780549050905090565b6106db6106d5610d40565b82610fcf565b61071a576040517f08c379a00000000000000000000000000000000000000000000000000000000081526004016107119061224b565b60405180910390fd5b6107258383836110ad565b505050565b60065481565b61074b83838360405180602001604052806000815250610acd565b505050565b6000806002600084815260200190815260200160002060009054906101000a900473ffffffffffffffffffffffffffffffffffffffff169050600073ffffffffffffffffffffffffffffffffffffffff168173ffffffffffffffffffffffffffffffffffffffff1614156107f9576040517f08c379a00000000000000000000000000000000000000000000000000000000081526004016107f09061218b565b60405180910390fd5b80915050919050565b60008073ffffffffffffffffffffffffffffffffffffffff168273ffffffffffffffffffffffffffffffffffffffff161415610873576040517f08c379a000000000000000000000000000000000000000000000000000000000815260040161086a9061216b565b60405180910390fd5b600360008373ffffffffffffffffffffffffffffffffffffffff1673ffffffffffffffffffffffffffffffffffffffff168152602001908152602001600020549050919050565b6060600180546108c99061249b565b80601f01602080910402602001604051908101604052809291908181526020018280546108f59061249b565b80156109425780601f1061091757610100808354040283529160200191610942565b820191906000526020600020905b81548152906001019060200180831161092557829003601f168201915b5050505050905090565b610954610d40565b73ffffffffffffffffffffffffffffffffffffffff168273ffffffffffffffffffffffffffffffffffffffff1614156109c2576040517f08c379a00000000000000000000000000000000000000000000000000000000081526004016109b99061210b565b60405180910390fd5b80600560006109cf610d40565b73ffffffffffffffffffffffffffffffffffffffff1673ffffffffffffffffffffffffffffffffffffffff16815260200190815260200160002060008473ffffffffffffffffffffffffffffffffffffffff1673ffffffffffffffffffffffffffffffffffffffff16815260200190815260200160002060006101000a81548160ff0219169083151502179055508173ffffffffffffffffffffffffffffffffffffffff16610a7c610d40565b73ffffffffffffffffffffffffffffffffffffffff167f17307eab39ab6107e8899845ad3d59bd9653f200f220920489ca2b5937696c3183604051610ac1919061206e565b60405180910390a35050565b610ade610ad8610d40565b83610fcf565b610b1d576040517f08c379a0000000000000000000000000000000000000000000000000000000008152600401610b149061224b565b60405180910390fd5b610b2984848484611309565b50505050565b6060610b3a82610cd4565b610b79576040517f08c379a0000000000000000000000000000000000000000000000000000000008152600401610b709061220b565b60405180910390fd5b6000610b83611365565b90506000815111610ba35760405180602001604052806000815250610bce565b80610bad846113a2565b604051602001610bbe929190611fe3565b6040516020818303038152906040525b915050919050565b6000600560008473ffffffffffffffffffffffffffffffffffffffff1673ffffffffffffffffffffffffffffffffffffffff16815260200190815260200160002060008373ffffffffffffffffffffffffffffffffffffffff1673ffffffffffffffffffffffffffffffffffffffff16815260200190815260200160002060009054906101000a900460ff16905092915050565b60007f01ffc9a7000000000000000000000000000000000000000000000000000000007bffffffffffffffffffffffffffffffffffffffffffffffffffffffff1916827bffffffffffffffffffffffffffffffffffffffffffffffffffffffff1916149050919050565b60008073ffffffffffffffffffffffffffffffffffffffff166002600084815260200190815260200160002060009054906101000a900473ffffffffffffffffffffffffffffffffffffffff1673ffffffffffffffffffffffffffffffffffffffff1614159050919050565b600033905090565b816004600083815260200190815260200160002060006101000a81548173ffffffffffffffffffffffffffffffffffffffff021916908373ffffffffffffffffffffffffffffffffffffffff160217905550808273ffffffffffffffffffffffffffffffffffffffff16610dbb83610750565b73ffffffffffffffffffffffffffffffffffffffff167f8c5be1e5ebec7d5bd14f71427d1e84f3dd0314c0f7b2291e5b200ac8c7c3b92560405160405180910390a45050565b600073ffffffffffffffffffffffffffffffffffffffff168273ffffffffffffffffffffffffffffffffffffffff161415610e71576040517f08c379a0000000000000000000000000000000000000000000000000000000008152600401610e68906121ab565b60405180910390fd5b610e7a81610cd4565b15610eba576040517f08c379a0000000000000000000000000000000000000000000000000000000008152600401610eb1906120cb565b60405180910390fd5b610ec66000838361154f565b6001600360008473ffffffffffffffffffffffffffffffffffffffff1673ffffffffffffffffffffffffffffffffffffffff1681526020019081526020016000206000828254610f16919061232a565b92505081905550816002600083815260200190815260200160002060006101000a81548173ffffffffffffffffffffffffffffffffffffffff021916908373ffffffffffffffffffffffffffffffffffffffff160217905550808273ffffffffffffffffffffffffffffffffffffffff16600073ffffffffffffffffffffffffffffffffffffffff167fddf252ad1be2c89b69c2b068fc378daa952ba7f163c4a11628f55a4df523b3ef60405160405180910390a45050565b6000610fda82610cd4565b611019576040517f08c379a00000000000000000000000000000000000000000000000000000000081526004016110109061212b565b60405180910390fd5b600061102483610750565b90508073ffffffffffffffffffffffffffffffffffffffff168473ffffffffffffffffffffffffffffffffffffffff16148061109357508373ffffffffffffffffffffffffffffffffffffffff1661107b846104bb565b73ffffffffffffffffffffffffffffffffffffffff16145b806110a457506110a38185610bd6565b5b91505092915050565b8273ffffffffffffffffffffffffffffffffffffffff166110cd82610750565b73ffffffffffffffffffffffffffffffffffffffff1614611123576040517f08c379a000000000000000000000000000000000000000000000000000000000815260040161111a906121eb565b60405180910390fd5b600073ffffffffffffffffffffffffffffffffffffffff168273ffffffffffffffffffffffffffffffffffffffff161415611193576040517f08c379a000000000000000000000000000000000000000000000000000000000815260040161118a906120eb565b60405180910390fd5b61119e83838361154f565b6111a9600082610d48565b6001600360008573ffffffffffffffffffffffffffffffffffffffff1673ffffffffffffffffffffffffffffffffffffffff16815260200190815260200160002060008282546111f991906123b1565b925050819055506001600360008473ffffffffffffffffffffffffffffffffffffffff1673ffffffffffffffffffffffffffffffffffffffff1681526020019081526020016000206000828254611250919061232a565b92505081905550816002600083815260200190815260200160002060006101000a81548173ffffffffffffffffffffffffffffffffffffffff021916908373ffffffffffffffffffffffffffffffffffffffff160217905550808273ffffffffffffffffffffffffffffffffffffffff168473ffffffffffffffffffffffffffffffffffffffff167fddf252ad1be2c89b69c2b068fc378daa952ba7f163c4a11628f55a4df523b3ef60405160405180910390a4505050565b6113148484846110ad565b61132084848484611554565b61135f576040517f08c379a0000000000000000000000000000000000000000000000000000000008152600401611356906120ab565b60405180910390fd5b50505050565b60606040518060400160405280601681526020017f687474703a2f2f6c6f63616c686f73743a333030302f00000000000000000000815250905090565b606060008214156113ea576040518060400160405280600181526020017f3000000000000000000000000000000000000000000000000000000000000000815250905061154a565b600082905060005b6000821461141c578080611405906124cd565b915050600a826114159190612380565b91506113f2565b60008167ffffffffffffffff81111561145e577f4e487b7100000000000000000000000000000000000000000000000000000000600052604160045260246000fd5b6040519080825280601f01601f1916602001820160405280156114905781602001600182028036833780820191505090505b5090505b60008514611543576001826114a991906123b1565b9150600a856114b89190612516565b60306114c4919061232a565b60f81b818381518110611500577f4e487b7100000000000000000000000000000000000000000000000000000000600052603260045260246000fd5b60200101907effffffffffffffffffffffffffffffffffffffffffffffffffffffffffffff1916908160001a905350600a8561153c9190612380565b9450611494565b8093505050505b919050565b505050565b60006115758473ffffffffffffffffffffffffffffffffffffffff166116eb565b156116de578373ffffffffffffffffffffffffffffffffffffffff1663150b7a0261159e610d40565b8786866040518563ffffffff1660e01b81526004016115c09493929190612022565b602060405180830381600087803b1580156115da57600080fd5b505af192505050801561160b57506040513d601f19601f82011682018060405250810190611608919061199f565b60015b61168e573d806000811461163b576040519150601f19603f3d011682016040523d82523d6000602084013e611640565b606091505b50600081511415611686576040517f08c379a000000000000000000000000000000000000000000000000000000000815260040161167d906120ab565b60405180910390fd5b805181602001fd5b63150b7a0260e01b7bffffffffffffffffffffffffffffffffffffffffffffffffffffffff1916817bffffffffffffffffffffffffffffffffffffffffffffffffffffffff1916149150506116e3565b600190505b949350505050565b600080823b905060008111915050919050565b600061171161170c846122b7565b612286565b90508281526020810184848401111561172957600080fd5b611734848285612459565b509392505050565b60008135905061174b81612614565b92915050565b6000813590506117608161262b565b92915050565b60008135905061177581612642565b92915050565b60008151905061178a81612642565b92915050565b600082601f8301126117a157600080fd5b81356117b18482602086016116fe565b91505092915050565b6000813590506117c981612659565b92915050565b6000602082840312156117e157600080fd5b60006117ef8482850161173c565b91505092915050565b6000806040838503121561180b57600080fd5b60006118198582860161173c565b925050602061182a8582860161173c565b9150509250929050565b60008060006060848603121561184957600080fd5b60006118578682870161173c565b93505060206118688682870161173c565b9250506040611879868287016117ba565b9150509250925092565b6000806000806080858703121561189957600080fd5b60006118a78782880161173c565b94505060206118b88782880161173c565b93505060406118c9878288016117ba565b925050606085013567ffffffffffffffff8111156118e657600080fd5b6118f287828801611790565b91505092959194509250565b6000806040838503121561191157600080fd5b600061191f8582860161173c565b925050602061193085828601611751565b9150509250929050565b6000806040838503121561194d57600080fd5b600061195b8582860161173c565b925050602061196c858286016117ba565b9150509250929050565b60006020828403121561198857600080fd5b600061199684828501611766565b91505092915050565b6000602082840312156119b157600080fd5b60006119bf8482850161177b565b91505092915050565b6000602082840312156119da57600080fd5b60006119e8848285016117ba565b91505092915050565b6119fa816123e5565b82525050565b611a09816123f7565b82525050565b6000611a1a826122e7565b611a2481856122fd565b9350611a34818560208601612468565b611a3d81612603565b840191505092915050565b6000611a53826122f2565b611a5d818561230e565b9350611a6d818560208601612468565b611a7681612603565b840191505092915050565b6000611a8c826122f2565b611a96818561231f565b9350611aa6818560208601612468565b80840191505092915050565b6000611abf60328361230e565b91507f4552433732313a207472616e7366657220746f206e6f6e20455243373231526560008301527f63656976657220696d706c656d656e74657200000000000000000000000000006020830152604082019050919050565b6000611b25601c8361230e565b91507f4552433732313a20746f6b656e20616c7265616479206d696e746564000000006000830152602082019050919050565b6000611b6560248361230e565b91507f4552433732313a207472616e7366657220746f20746865207a65726f2061646460008301527f72657373000000000000000000000000000000000000000000000000000000006020830152604082019050919050565b6000611bcb60198361230e565b91507f4552433732313a20617070726f766520746f2063616c6c6572000000000000006000830152602082019050919050565b6000611c0b602c8361230e565b91507f4552433732313a206f70657261746f7220717565727920666f72206e6f6e657860008301527f697374656e7420746f6b656e00000000000000000000000000000000000000006020830152604082019050919050565b6000611c7160388361230e565b91507f4552433732313a20617070726f76652063616c6c6572206973206e6f74206f7760008301527f6e6572206e6f7220617070726f76656420666f7220616c6c00000000000000006020830152604082019050919050565b6000611cd7602a8361230e565b91507f4552433732313a2062616c616e636520717565727920666f7220746865207a6560008301527f726f2061646472657373000000000000000000000000000000000000000000006020830152604082019050919050565b6000611d3d60298361230e565b91507f4552433732313a206f776e657220717565727920666f72206e6f6e657869737460008301527f656e7420746f6b656e00000000000000000000000000000000000000000000006020830152604082019050919050565b6000611da360208361230e565b91507f4552433732313a206d696e7420746f20746865207a65726f20616464726573736000830152602082019050919050565b6000611de3602c8361230e565b91507f4552433732313a20617070726f76656420717565727920666f72206e6f6e657860008301527f697374656e7420746f6b656e00000000000000000000000000000000000000006020830152604082019050919050565b6000611e4960298361230e565b91507f4552433732313a207472616e73666572206f6620746f6b656e2074686174206960008301527f73206e6f74206f776e00000000000000000000000000000000000000000000006020830152604082019050919050565b6000611eaf602f8361230e565b91507f4552433732314d657461646174613a2055524920717565727920666f72206e6f60008301527f6e6578697374656e7420746f6b656e00000000000000000000000000000000006020830152604082019050919050565b6000611f1560218361230e565b91507f4552433732313a20617070726f76616c20746f2063757272656e74206f776e6560008301527f72000000000000000000000000000000000000000000000000000000000000006020830152604082019050919050565b6000611f7b60318361230e565b91507f4552433732313a207472616e736665722063616c6c6572206973206e6f74206f60008301527f776e6572206e6f7220617070726f7665640000000000000000000000000000006020830152604082019050919050565b611fdd8161244f565b82525050565b6000611fef8285611a81565b9150611ffb8284611a81565b91508190509392505050565b600060208201905061201c60008301846119f1565b92915050565b600060808201905061203760008301876119f1565b61204460208301866119f1565b6120516040830185611fd4565b81810360608301526120638184611a0f565b905095945050505050565b60006020820190506120836000830184611a00565b92915050565b600060208201905081810360008301526120a38184611a48565b905092915050565b600060208201905081810360008301526120c481611ab2565b9050919050565b600060208201905081810360008301526120e481611b18565b9050919050565b6000602082019050818103600083015261210481611b58565b9050919050565b6000602082019050818103600083015261212481611bbe565b9050919050565b6000602082019050818103600083015261214481611bfe565b9050919050565b6000602082019050818103600083015261216481611c64565b9050919050565b6000602082019050818103600083015261218481611cca565b9050919050565b600060208201905081810360008301526121a481611d30565b9050919050565b600060208201905081810360008301526121c481611d96565b9050919050565b600060208201905081810360008301526121e481611dd6565b9050919050565b6000602082019050818103600083015261220481611e3c565b9050919050565b6000602082019050818103600083015261222481611ea2565b9050919050565b6000602082019050818103600083015261224481611f08565b9050919050565b6000602082019050818103600083015261226481611f6e565b9050919050565b60006020820190506122806000830184611fd4565b92915050565b6000604051905081810181811067ffffffffffffffff821117156122ad576122ac6125d4565b5b8060405250919050565b600067ffffffffffffffff8211156122d2576122d16125d4565b5b601f19601f8301169050602081019050919050565b600081519050919050565b600081519050919050565b600082825260208201905092915050565b600082825260208201905092915050565b600081905092915050565b60006123358261244f565b91506123408361244f565b9250827fffffffffffffffffffffffffffffffffffffffffffffffffffffffffffffffff0382111561237557612374612547565b5b828201905092915050565b600061238b8261244f565b91506123968361244f565b9250826123a6576123a5612576565b5b828204905092915050565b60006123bc8261244f565b91506123c78361244f565b9250828210156123da576123d9612547565b5b828203905092915050565b60006123f08261242f565b9050919050565b60008115159050919050565b60007fffffffff0000000000000000000000000000000000000000000000000000000082169050919050565b600073ffffffffffffffffffffffffffffffffffffffff82169050919050565b6000819050919050565b82818337600083830152505050565b60005b8381101561248657808201518184015260208101905061246b565b83811115612495576000848401525b50505050565b600060028204905060018216806124b357607f821691505b602082108114156124c7576124c66125a5565b5b50919050565b60006124d88261244f565b91507fffffffffffffffffffffffffffffffffffffffffffffffffffffffffffffffff82141561250b5761250a612547565b5b600182019050919050565b60006125218261244f565b915061252c8361244f565b92508261253c5761253b612576565b5b828206905092915050565b7f4e487b7100000000000000000000000000000000000000000000000000000000600052601160045260246000fd5b7f4e487b7100000000000000000000000000000000000000000000000000000000600052601260045260246000fd5b7f4e487b7100000000000000000000000000000000000000000000000000000000600052602260045260246000fd5b7f4e487b7100000000000000000000000000000000000000000000000000000000600052604160045260246000fd5b6000601f19601f8301169050919050565b61261d816123e5565b811461262857600080fd5b50565b612634816123f7565b811461263f57600080fd5b50565b61264b81612403565b811461265657600080fd5b50565b6126628161244f565b811461266d57600080fd5b5056fea2646970667358221220b6fbc8560762e35d5cc7c2b739b0e359ec9a194ec73038fe75f7f5796dfd1cfd64736f6c63430008000033",
  "immutableReferences": {},
  "source": "// SPDX-License-Identifier: MIT\r\npragma solidity ^0.8.0;\r\n\r\nimport \"@openzeppelin/contracts/token/ERC721/ERC721.sol\";\r\nimport \"@openzeppelin/contracts/token/ERC721/extensions/IERC721Metadata.sol\";\r\n\r\ncontract Coinja is IERC721Metadata, ERC721  {\r\n  uint256 public _tokenId;\r\n  uint256[] private _allTokens;\r\n\r\n  constructor() ERC721(\"Coinja\", \"STAR\") {\r\n  }\r\n\r\n  function mint() public returns (uint256){ // Have to restrict access \r\n    _mint(msg.sender, _tokenId);\r\n    _allTokens.push(_tokenId);\r\n    tokenURI(_tokenId);\r\n    _tokenId++;\r\n    return _tokenId;\r\n  }\r\n\r\n  function _baseURI() internal pure override returns (string memory) {\r\n        return \"http://localhost:3000/\";\r\n  }\r\n\r\n  \r\n  function totalSupply() public view virtual returns (uint256) {\r\n        return _allTokens.length;\r\n  }\r\n\r\n}",
  "sourcePath": "C:/Users/Samuel.Hoggatt/nft-ninja/src/contracts/Coinja.sol",
  "compiler": {
    "name": "solc",
    "version": "0.8.0+commit.c7dfd78e.Emscripten.clang"
  },
  "schemaVersion": "3.4.1",
  "updatedAt": "2021-08-05T20:58:19.381Z",
  "networkType": "ethereum",
  "devdoc": {
    "kind": "dev",
    "methods": {
      "approve(address,uint256)": {
        "details": "See {IERC721-approve}."
      },
      "balanceOf(address)": {
        "details": "See {IERC721-balanceOf}."
      },
      "getApproved(uint256)": {
        "details": "See {IERC721-getApproved}."
      },
      "isApprovedForAll(address,address)": {
        "details": "See {IERC721-isApprovedForAll}."
      },
      "name()": {
        "details": "See {IERC721Metadata-name}."
      },
      "ownerOf(uint256)": {
        "details": "See {IERC721-ownerOf}."
      },
      "safeTransferFrom(address,address,uint256)": {
        "details": "See {IERC721-safeTransferFrom}."
      },
      "safeTransferFrom(address,address,uint256,bytes)": {
        "details": "See {IERC721-safeTransferFrom}."
      },
      "setApprovalForAll(address,bool)": {
        "details": "See {IERC721-setApprovalForAll}."
      },
      "supportsInterface(bytes4)": {
        "details": "See {IERC165-supportsInterface}."
      },
      "symbol()": {
        "details": "See {IERC721Metadata-symbol}."
      },
      "tokenURI(uint256)": {
        "details": "See {IERC721Metadata-tokenURI}."
      },
      "transferFrom(address,address,uint256)": {
        "details": "See {IERC721-transferFrom}."
      }
    },
    "version": 1
  },
  "userdoc": {
    "kind": "user",
    "methods": {},
    "version": 1
  }
}